{
  "contractName": "UFragmentsPolicy",
  "abi": [
    {
      "constant": true,
      "inputs": [],
      "name": "minRebaseTimeIntervalSec",
      "outputs": [
        {
          "name": "",
          "type": "uint256"
        }
      ],
      "payable": false,
      "stateMutability": "view",
      "type": "function"
    },
    {
      "constant": true,
      "inputs": [],
      "name": "lastRebaseTimestampSec",
      "outputs": [
        {
          "name": "",
          "type": "uint256"
        }
      ],
      "payable": false,
      "stateMutability": "view",
      "type": "function"
    },
    {
      "constant": true,
      "inputs": [],
      "name": "rebaseLag",
      "outputs": [
        {
          "name": "",
          "type": "uint256"
        }
      ],
      "payable": false,
      "stateMutability": "view",
      "type": "function"
    },
    {
      "constant": true,
      "inputs": [],
      "name": "rebaseWindowOffsetSec",
      "outputs": [
        {
          "name": "",
          "type": "uint256"
        }
      ],
      "payable": false,
      "stateMutability": "view",
      "type": "function"
    },
    {
      "constant": false,
      "inputs": [],
      "name": "renounceOwnership",
      "outputs": [],
      "payable": false,
      "stateMutability": "nonpayable",
      "type": "function"
    },
    {
      "constant": true,
      "inputs": [],
      "name": "oracle",
      "outputs": [
        {
          "name": "",
          "type": "address"
        }
      ],
      "payable": false,
      "stateMutability": "view",
      "type": "function"
    },
    {
      "constant": true,
      "inputs": [],
      "name": "owner",
      "outputs": [
        {
          "name": "",
          "type": "address"
        }
      ],
      "payable": false,
      "stateMutability": "view",
      "type": "function"
    },
    {
      "constant": true,
      "inputs": [],
      "name": "isOwner",
      "outputs": [
        {
          "name": "",
          "type": "bool"
        }
      ],
      "payable": false,
      "stateMutability": "view",
      "type": "function"
    },
    {
      "constant": true,
      "inputs": [],
      "name": "epoch",
      "outputs": [
        {
          "name": "",
          "type": "uint256"
        }
      ],
      "payable": false,
      "stateMutability": "view",
      "type": "function"
    },
    {
      "constant": true,
      "inputs": [],
      "name": "rebaseWindowLengthSec",
      "outputs": [
        {
          "name": "",
          "type": "uint256"
        }
      ],
      "payable": false,
      "stateMutability": "view",
      "type": "function"
    },
    {
      "constant": true,
      "inputs": [],
      "name": "orchestrator",
      "outputs": [
        {
          "name": "",
          "type": "address"
        }
      ],
      "payable": false,
      "stateMutability": "view",
      "type": "function"
    },
    {
      "constant": true,
      "inputs": [],
      "name": "uFrags",
      "outputs": [
        {
          "name": "",
          "type": "address"
        }
      ],
      "payable": false,
      "stateMutability": "view",
      "type": "function"
    },
    {
      "constant": true,
      "inputs": [],
      "name": "deviationThreshold",
      "outputs": [
        {
          "name": "",
          "type": "uint256"
        }
      ],
      "payable": false,
      "stateMutability": "view",
      "type": "function"
    },
    {
      "constant": false,
      "inputs": [
        {
          "name": "newOwner",
          "type": "address"
        }
      ],
      "name": "transferOwnership",
      "outputs": [],
      "payable": false,
      "stateMutability": "nonpayable",
      "type": "function"
    },
    {
      "anonymous": false,
      "inputs": [
        {
          "indexed": true,
          "name": "epoch",
          "type": "uint256"
        },
        {
          "indexed": false,
          "name": "exchangeRate",
          "type": "uint256"
        },
        {
          "indexed": false,
          "name": "yfiPrice",
          "type": "uint256"
        },
        {
          "indexed": false,
          "name": "requestedSupplyAdjustment",
          "type": "int256"
        },
        {
          "indexed": false,
          "name": "timestampSec",
          "type": "uint256"
        }
      ],
      "name": "LogRebase",
      "type": "event"
    },
    {
      "anonymous": false,
      "inputs": [
        {
          "indexed": true,
          "name": "previousOwner",
          "type": "address"
        }
      ],
      "name": "OwnershipRenounced",
      "type": "event"
    },
    {
      "anonymous": false,
      "inputs": [
        {
          "indexed": true,
          "name": "previousOwner",
          "type": "address"
        },
        {
          "indexed": true,
          "name": "newOwner",
          "type": "address"
        }
      ],
      "name": "OwnershipTransferred",
      "type": "event"
    },
    {
      "constant": false,
      "inputs": [],
      "name": "rebase",
      "outputs": [],
      "payable": false,
      "stateMutability": "nonpayable",
      "type": "function"
    },
    {
      "constant": false,
      "inputs": [
        {
          "name": "orchestrator_",
          "type": "address"
        }
      ],
      "name": "setOrchestrator",
      "outputs": [],
      "payable": false,
      "stateMutability": "nonpayable",
      "type": "function"
    },
    {
      "constant": false,
      "inputs": [
        {
          "name": "deviationThreshold_",
          "type": "uint256"
        }
      ],
      "name": "setDeviationThreshold",
      "outputs": [],
      "payable": false,
      "stateMutability": "nonpayable",
      "type": "function"
    },
    {
      "constant": false,
      "inputs": [
        {
          "name": "rebaseLag_",
          "type": "uint256"
        }
      ],
      "name": "setRebaseLag",
      "outputs": [],
      "payable": false,
      "stateMutability": "nonpayable",
      "type": "function"
    },
    {
      "constant": false,
      "inputs": [
        {
          "name": "minRebaseTimeIntervalSec_",
          "type": "uint256"
        },
        {
          "name": "rebaseWindowOffsetSec_",
          "type": "uint256"
        },
        {
          "name": "rebaseWindowLengthSec_",
          "type": "uint256"
        }
      ],
      "name": "setRebaseTimingParameters",
      "outputs": [],
      "payable": false,
      "stateMutability": "nonpayable",
      "type": "function"
    },
    {
      "constant": false,
      "inputs": [
        {
          "name": "owner_",
          "type": "address"
        },
        {
          "name": "uFrags_",
          "type": "address"
        },
        {
          "name": "_oracle",
          "type": "address"
        }
      ],
      "name": "initialize",
      "outputs": [],
      "payable": false,
      "stateMutability": "nonpayable",
      "type": "function"
    },
    {
      "constant": false,
      "inputs": [
        {
          "name": "sender",
          "type": "address"
        }
      ],
      "name": "initialize",
      "outputs": [],
      "payable": false,
      "stateMutability": "nonpayable",
      "type": "function"
    },
    {
      "constant": true,
      "inputs": [],
      "name": "inRebaseWindow",
      "outputs": [
        {
          "name": "",
          "type": "bool"
        }
      ],
      "payable": false,
      "stateMutability": "view",
      "type": "function"
    }
  ],
  "bytecode": "0x6080604052731117bcaf1116f643fe8b069e0897887f0354347d607160006101000a81548173ffffffffffffffffffffffffffffffffffffffff021916908373ffffffffffffffffffffffffffffffffffffffff16021790555034801561006557600080fd5b5061199e806100756000396000f300608060405260043610610128576000357c0100000000000000000000000000000000000000000000000000000000900463ffffffff168063021018991461012d578063111d04981461015857806316250fd41461018757806320ce8389146101c85780633a93069b146101f557806353a15edc1461022057806363f6d4c81461024d5780637052b90214610278578063715018a6146102a35780637dc0d1d0146102ba5780638da5cb5b146103115780638f32d59b14610368578063900cf0cf146103975780639466120f146103c2578063af14052c146103ed578063b74795d914610404578063c0c53b8b1461045b578063c4d66de8146104de578063cd28ef0d14610521578063d3d55d5114610564578063d94ad837146105bb578063f2fde38b146105e6575b600080fd5b34801561013957600080fd5b50610142610629565b6040518082815260200191505060405180910390f35b34801561016457600080fd5b5061016d61062f565b604051808215151515815260200191505060405180910390f35b34801561019357600080fd5b506101c6600480360381019080803590602001909291908035906020019092919080359060200190929190505050610685565b005b3480156101d457600080fd5b506101f3600480360381019080803590602001909291905050506106cf565b005b34801561020157600080fd5b5061020a6106fb565b6040518082815260200191505060405180910390f35b34801561022c57600080fd5b5061024b60048036038101908080359060200190929190505050610701565b005b34801561025957600080fd5b5061026261071e565b6040518082815260200191505060405180910390f35b34801561028457600080fd5b5061028d610724565b6040518082815260200191505060405180910390f35b3480156102af57600080fd5b506102b861072a565b005b3480156102c657600080fd5b506102cf6107e6565b604051808273ffffffffffffffffffffffffffffffffffffffff1673ffffffffffffffffffffffffffffffffffffffff16815260200191505060405180910390f35b34801561031d57600080fd5b5061032661080c565b604051808273ffffffffffffffffffffffffffffffffffffffff1673ffffffffffffffffffffffffffffffffffffffff16815260200191505060405180910390f35b34801561037457600080fd5b5061037d610836565b604051808215151515815260200191505060405180910390f35b3480156103a357600080fd5b506103ac61088e565b6040518082815260200191505060405180910390f35b3480156103ce57600080fd5b506103d7610894565b6040518082815260200191505060405180910390f35b3480156103f957600080fd5b5061040261089a565b005b34801561041057600080fd5b50610419610ef9565b604051808273ffffffffffffffffffffffffffffffffffffffff1673ffffffffffffffffffffffffffffffffffffffff16815260200191505060405180910390f35b34801561046757600080fd5b506104dc600480360381019080803573ffffffffffffffffffffffffffffffffffffffff169060200190929190803573ffffffffffffffffffffffffffffffffffffffff169060200190929190803573ffffffffffffffffffffffffffffffffffffffff169060200190929190505050610f1f565b005b3480156104ea57600080fd5b5061051f600480360381019080803573ffffffffffffffffffffffffffffffffffffffff16906020019092919050505061129b565b005b34801561052d57600080fd5b50610562600480360381019080803573ffffffffffffffffffffffffffffffffffffffff169060200190929190505050611412565b005b34801561057057600080fd5b50610579611469565b604051808273ffffffffffffffffffffffffffffffffffffffff1673ffffffffffffffffffffffffffffffffffffffff16815260200191505060405180910390f35b3480156105c757600080fd5b506105d061148f565b6040518082815260200191505060405180910390f35b3480156105f257600080fd5b50610627600480360381019080803573ffffffffffffffffffffffffffffffffffffffff169060200190929190505050611495565b005b606b5481565b6000606d54610649606b54426114b490919063ffffffff16565b101580156106805750610669606e54606d546114d990919063ffffffff16565b61067e606b54426114b490919063ffffffff16565b105b905090565b61068d610836565b151561069857600080fd5b6000831115156106a757600080fd5b82821015156106b557600080fd5b82606b8190555081606d8190555080606e81905550505050565b6106d7610836565b15156106e257600080fd5b6000811115156106f157600080fd5b80606a8190555050565b606c5481565b610709610836565b151561071457600080fd5b8060698190555050565b606a5481565b606d5481565b610732610836565b151561073d57600080fd5b603360009054906101000a900473ffffffffffffffffffffffffffffffffffffffff1673ffffffffffffffffffffffffffffffffffffffff167ff8df31144d9c2f0f6b59d69b8b98abd5459d07f2742c4df920b25aae33c6482060405160405180910390a26000603360006101000a81548173ffffffffffffffffffffffffffffffffffffffff021916908373ffffffffffffffffffffffffffffffffffffffff160217905550565b606760009054906101000a900473ffffffffffffffffffffffffffffffffffffffff1681565b6000603360009054906101000a900473ffffffffffffffffffffffffffffffffffffffff16905090565b6000603360009054906101000a900473ffffffffffffffffffffffffffffffffffffffff1673ffffffffffffffffffffffffffffffffffffffff163373ffffffffffffffffffffffffffffffffffffffff1614905090565b606f5481565b606e5481565b600080600080600080607060009054906101000a900473ffffffffffffffffffffffffffffffffffffffff1673ffffffffffffffffffffffffffffffffffffffff163373ffffffffffffffffffffffffffffffffffffffff161415156108ff57600080fd5b6109156001606f546114d990919063ffffffff16565b606f81905550606760009054906101000a900473ffffffffffffffffffffffffffffffffffffffff1673ffffffffffffffffffffffffffffffffffffffff1663a2e620456040518163ffffffff167c0100000000000000000000000000000000000000000000000000000000028152600401600060405180830381600087803b1580156109a157600080fd5b505af11580156109b5573d6000803e3d6000fd5b50505050606760009054906101000a900473ffffffffffffffffffffffffffffffffffffffff1673ffffffffffffffffffffffffffffffffffffffff16633bc5de306040518163ffffffff167c01000000000000000000000000000000000000000000000000000000000281526004016040805180830381600087803b158015610a3e57600080fd5b505af1158015610a52573d6000803e3d6000fd5b505050506040513d6040811015610a6857600080fd5b8101908080519060200190929190805190602001909291905050508096508197505050610ab4620f4240610aa66003896114fa90919063ffffffff16565b61153890919063ffffffff16565b93506012600a0a620f424002851115610ad4576012600a0a620f42400294505b610ade8585611562565b9250610afd610aee606a54611699565b846116bb90919063ffffffff16565b9250600083138015610bfd57506012600a0a620f42400260ff60019060020a0219811515610b2757fe5b04610bfb84606660009054906101000a900473ffffffffffffffffffffffffffffffffffffffff1673ffffffffffffffffffffffffffffffffffffffff166318160ddd6040518163ffffffff167c0100000000000000000000000000000000000000000000000000000000028152600401602060405180830381600087803b158015610bb257600080fd5b505af1158015610bc6573d6000803e3d6000fd5b505050506040513d6020811015610bdc57600080fd5b81019080805190602001909291905050506114d990919063ffffffff16565b115b15610cfd57610cfa610cf5606660009054906101000a900473ffffffffffffffffffffffffffffffffffffffff1673ffffffffffffffffffffffffffffffffffffffff166318160ddd6040518163ffffffff167c0100000000000000000000000000000000000000000000000000000000028152600401602060405180830381600087803b158015610c8e57600080fd5b505af1158015610ca2573d6000803e3d6000fd5b505050506040513d6020811015610cb857600080fd5b81019080805190602001909291905050506012600a0a620f42400260ff60019060020a0219811515610ce657fe5b0461171390919063ffffffff16565b611699565b92505b606660009054906101000a900473ffffffffffffffffffffffffffffffffffffffff1673ffffffffffffffffffffffffffffffffffffffff16637a43e23f606f54856040518363ffffffff167c01000000000000000000000000000000000000000000000000000000000281526004018083815260200182815260200192505050602060405180830381600087803b158015610d9857600080fd5b505af1158015610dac573d6000803e3d6000fd5b505050506040513d6020811015610dc257600080fd5b81019080805190602001909291905050509150607160009054906101000a900473ffffffffffffffffffffffffffffffffffffffff1690508073ffffffffffffffffffffffffffffffffffffffff1663fff6cae96040518163ffffffff167c0100000000000000000000000000000000000000000000000000000000028152600401600060405180830381600087803b158015610e5e57600080fd5b505af1158015610e72573d6000803e3d6000fd5b505050506012600a0a620f42400260ff60019060020a0219811515610e9357fe5b048211151515610e9f57fe5b606f547f41d948a7f29cc695f5d4b3ec147f766bffa165ddd317470fbe05c86d0a9c3e04878786426040518085815260200184815260200183815260200182815260200194505050505060405180910390a2505050505050565b607060009054906101000a900473ffffffffffffffffffffffffffffffffffffffff1681565b60008060019054906101000a900460ff1680610f3f5750610f3e611734565b5b80610f5657506000809054906101000a900460ff16155b1515610ff0576040517f08c379a000000000000000000000000000000000000000000000000000000000815260040180806020018281038252602e8152602001807f436f6e747261637420696e7374616e63652068617320616c726561647920626581526020017f656e20696e697469616c697a656400000000000000000000000000000000000081525060400191505060405180910390fd5b600060019054906101000a900460ff1690506001600060016101000a81548160ff02191690831515021790555060016000806101000a81548160ff0219169083151502179055506110408461129b565b81606760006101000a81548173ffffffffffffffffffffffffffffffffffffffff021916908373ffffffffffffffffffffffffffffffffffffffff1602179055506002601203600a0a600502606981905550601e606a8190555062015180606b8190555062011940606d81905550610384606e819055506000606c819055506000606f8190555082606660006101000a81548173ffffffffffffffffffffffffffffffffffffffff021916908373ffffffffffffffffffffffffffffffffffffffff160217905550606760009054906101000a900473ffffffffffffffffffffffffffffffffffffffff1673ffffffffffffffffffffffffffffffffffffffff1663a2e620456040518163ffffffff167c0100000000000000000000000000000000000000000000000000000000028152600401600060405180830381600087803b15801561118e57600080fd5b505af11580156111a2573d6000803e3d6000fd5b50505050606760009054906101000a900473ffffffffffffffffffffffffffffffffffffffff1673ffffffffffffffffffffffffffffffffffffffff16633bc5de306040518163ffffffff167c01000000000000000000000000000000000000000000000000000000000281526004016040805180830381600087803b15801561122b57600080fd5b505af115801561123f573d6000803e3d6000fd5b505050506040513d604081101561125557600080fd5b810190808051906020019092919080519060200190929190505050506068600082919050555080600060016101000a81548160ff02191690831515021790555050505050565b60008060019054906101000a900460ff16806112bb57506112ba611734565b5b806112d257506000809054906101000a900460ff16155b151561136c576040517f08c379a000000000000000000000000000000000000000000000000000000000815260040180806020018281038252602e8152602001807f436f6e747261637420696e7374616e63652068617320616c726561647920626581526020017f656e20696e697469616c697a656400000000000000000000000000000000000081525060400191505060405180910390fd5b600060019054906101000a900460ff1690506001600060016101000a81548160ff02191690831515021790555060016000806101000a81548160ff02191690831515021790555081603360006101000a81548173ffffffffffffffffffffffffffffffffffffffff021916908373ffffffffffffffffffffffffffffffffffffffff16021790555080600060016101000a81548160ff0219169083151502179055505050565b61141a610836565b151561142557600080fd5b80607060006101000a81548173ffffffffffffffffffffffffffffffffffffffff021916908373ffffffffffffffffffffffffffffffffffffffff16021790555050565b606660009054906101000a900473ffffffffffffffffffffffffffffffffffffffff1681565b60695481565b61149d610836565b15156114a857600080fd5b6114b181611745565b50565b60008082141515156114c557600080fd5b81838115156114d057fe5b06905092915050565b60008082840190508381101515156114f057600080fd5b8091505092915050565b600080600084141561150f5760009150611531565b828402905082848281151561152057fe5b0414151561152d57600080fd5b8091505b5092915050565b60008060008311151561154a57600080fd5b828481151561155557fe5b0490508091505092915050565b60008061156f8484611841565b1561157d5760009150611692565b61158683611699565b905061168f816116816115aa8461159c89611699565b6118c290919063ffffffff16565b611673606660009054906101000a900473ffffffffffffffffffffffffffffffffffffffff1673ffffffffffffffffffffffffffffffffffffffff166318160ddd6040518163ffffffff167c0100000000000000000000000000000000000000000000000000000000028152600401602060405180830381600087803b15801561163357600080fd5b505af1158015611647573d6000803e3d6000fd5b505050506040513d602081101561165d57600080fd5b8101908080519060200190929190505050611699565b61190690919063ffffffff16565b6116bb90919063ffffffff16565b91505b5092915050565b600060ff60019060020a021982111515156116b357600080fd5b819050919050565b60007fffffffffffffffffffffffffffffffffffffffffffffffffffffffffffffffff821415806116f4575060ff60019060020a028314155b15156116ff57600080fd5b818381151561170a57fe5b05905092915050565b60008083831115151561172557600080fd5b82840390508091505092915050565b600080303b90506000811491505090565b600073ffffffffffffffffffffffffffffffffffffffff168173ffffffffffffffffffffffffffffffffffffffff161415151561178157600080fd5b8073ffffffffffffffffffffffffffffffffffffffff16603360009054906101000a900473ffffffffffffffffffffffffffffffffffffffff1673ffffffffffffffffffffffffffffffffffffffff167f8be0079c531659141344cd1fd0a4f28419497f9722a3daafe3b4186f6b6457e060405160405180910390a380603360006101000a81548173ffffffffffffffffffffffffffffffffffffffff021916908373ffffffffffffffffffffffffffffffffffffffff16021790555050565b60008061186f6012600a0a611861606954866114fa90919063ffffffff16565b61153890919063ffffffff16565b9050828410158015611892575080611890848661171390919063ffffffff16565b105b806118b9575082841080156118b85750806118b6858561171390919063ffffffff16565b105b5b91505092915050565b6000808284039050600083121580156118db5750838113155b806118f157506000831280156118f057508381135b5b15156118fc57600080fd5b8091505092915050565b600080828402905060ff60019060020a0281141580611939575060ff60019060020a02831660ff60019060020a02851614155b151561194457600080fd5b600083148061195d575083838281151561195a57fe5b05145b151561196857600080fd5b80915050929150505600a165627a7a723058206c65a0e1fd0d075dda90e2cfe38e5056aaff66c98a95dafcd45c6ad6f853a8ef0029",
  "source": "pragma solidity 0.4.24;\r\n\r\nimport \"openzeppelin-eth/contracts/math/SafeMath.sol\";\r\nimport \"openzeppelin-eth/contracts/ownership/Ownable.sol\";\r\n\r\nimport \"./lib/SafeMathInt.sol\";\r\nimport \"./lib/UInt256Lib.sol\";\r\nimport \"./UFragments.sol\";\r\n\r\ninterface IUniswapV2Pair {\r\n    event Approval(address indexed owner, address indexed spender, uint value);\r\n    event Transfer(address indexed from, address indexed to, uint value);\r\n\r\n    function name() external pure returns (string memory);\r\n    function symbol() external pure returns (string memory);\r\n    function decimals() external pure returns (uint8);\r\n    function totalSupply() external view returns (uint);\r\n    function balanceOf(address owner) external view returns (uint);\r\n    function allowance(address owner, address spender) external view returns (uint);\r\n\r\n    function approve(address spender, uint value) external returns (bool);\r\n    function transfer(address to, uint value) external returns (bool);\r\n    function transferFrom(address from, address to, uint value) external returns (bool);\r\n\r\n    function DOMAIN_SEPARATOR() external view returns (bytes32);\r\n    function PERMIT_TYPEHASH() external pure returns (bytes32);\r\n    function nonces(address owner) external view returns (uint);\r\n\r\n    function permit(address owner, address spender, uint value, uint deadline, uint8 v, bytes32 r, bytes32 s) external;\r\n\r\n    event Mint(address indexed sender, uint amount0, uint amount1);\r\n    event Burn(address indexed sender, uint amount0, uint amount1, address indexed to);\r\n    event Swap(\r\n        address indexed sender,\r\n        uint amount0In,\r\n        uint amount1In,\r\n        uint amount0Out,\r\n        uint amount1Out,\r\n        address indexed to\r\n    );\r\n    event Sync(uint112 reserve0, uint112 reserve1);\r\n\r\n    function MINIMUM_LIQUIDITY() external pure returns (uint);\r\n    function factory() external view returns (address);\r\n    function token0() external view returns (address);\r\n    function token1() external view returns (address);\r\n    function getReserves() external view returns (uint112 reserve0, uint112 reserve1, uint32 blockTimestampLast);\r\n    function price0CumulativeLast() external view returns (uint);\r\n    function price1CumulativeLast() external view returns (uint);\r\n    function kLast() external view returns (uint);\r\n\r\n    function mint(address to) external returns (uint liquidity);\r\n    function burn(address to) external returns (uint amount0, uint amount1);\r\n    function swap(uint amount0Out, uint amount1Out, address to, bytes data) external;\r\n    function skim(address to) external;\r\n    function sync() external;\r\n\r\n    function initialize(address, address) external;\r\n}\r\n\r\ninterface IOracle {\r\n    function getData() external returns (uint256, uint256);\r\n    function update() external;\r\n}\r\n\r\n/**\r\n * @title uFragments Monetary Supply Policy\r\n * @dev This is an implementation of the uFragments Ideal Money protocol.\r\n *      uFragments operates symmetrically on expansion and contraction. It will both split and\r\n *      combine coins to maintain a stable unit price.\r\n *\r\n *      This component regulates the token supply of the uFragments ERC20 token in response to\r\n *      market oracles.\r\n */\r\ncontract UFragmentsPolicy is Ownable {\r\n    using SafeMath for uint256;\r\n    using SafeMathInt for int256;\r\n    using UInt256Lib for uint256;\r\n\r\n    event LogRebase(\r\n        uint256 indexed epoch,\r\n        uint256 exchangeRate,\r\n        uint256 yfiPrice,\r\n        int256 requestedSupplyAdjustment,\r\n        uint256 timestampSec\r\n    );\r\n\r\n    UFragments public uFrags;\r\n\r\n    IOracle public oracle;\r\n\r\n    // YFI Price at the time of launch, as an 18 decimal fixed point number.\r\n    uint256 private baseYFIValue;\r\n\r\n    // If the current exchange rate is within this fractional distance from the target, no supply\r\n    // update is performed. Fixed point number--same format as the rate.\r\n    // (ie) abs(rate - targetRate) / targetRate < deviationThreshold, then no supply change.\r\n    // DECIMALS Fixed point number.\r\n    uint256 public deviationThreshold;\r\n\r\n    // The rebase lag parameter, used to dampen the applied supply adjustment by 1 / rebaseLag\r\n    // Check setRebaseLag comments for more details.\r\n    // Natural number, no decimal places.\r\n    uint256 public rebaseLag;\r\n\r\n    // More than this much time must pass between rebase operations.\r\n    uint256 public minRebaseTimeIntervalSec;\r\n\r\n    // Block timestamp of last rebase operation\r\n    uint256 public lastRebaseTimestampSec;\r\n\r\n    // The rebase window begins this many seconds into the minRebaseTimeInterval period.\r\n    // For example if minRebaseTimeInterval is 24hrs, it represents the time of day in seconds.\r\n    uint256 public rebaseWindowOffsetSec;\r\n\r\n    // The length of the time window where a rebase operation is allowed to execute, in seconds.\r\n    uint256 public rebaseWindowLengthSec;\r\n\r\n    // The number of rebase cycles since inception\r\n    uint256 public epoch;\r\n\r\n    uint256 private constant DECIMALS = 18;\r\n\r\n    // Due to the expression in computeSupplyDelta(), MAX_RATE * MAX_SUPPLY must fit into an int256.\r\n    // Both are 18 decimals fixed point numbers.\r\n    uint256 private constant MAX_RATE = 10**6 * 10**DECIMALS;\r\n    // MAX_SUPPLY = MAX_INT256 / MAX_RATE\r\n    uint256 private constant MAX_SUPPLY = ~(uint256(1) << 255) / MAX_RATE;\r\n\r\n    // This module orchestrates the rebase execution and downstream notification.\r\n    address public orchestrator;\r\n    address uniswapV2Pair = 0x1117BCaf1116F643FE8B069e0897887F0354347d;\r\n\r\n    modifier onlyOrchestrator() {\r\n        require(msg.sender == orchestrator);\r\n        _;\r\n    }\r\n\r\n    /**\r\n     * @notice Initiates a new rebase operation, provided the minimum time period has elapsed.\r\n     *\r\n     * @dev The supply adjustment equals (_totalSupply * DeviationFromTargetRate) / rebaseLag\r\n     *      Where DeviationFromTargetRate is (MarketOracleRate - targetRate) / targetRate\r\n     *      and targetRate is 0.006\r\n     */\r\n    function rebase() external onlyOrchestrator {\r\n        //require(inRebaseWindow());\r\n\r\n        // This comparison also ensures there is no reentrancy.\r\n        //require(lastRebaseTimestampSec.add(minRebaseTimeIntervalSec) < now);\r\n\r\n        // Snap the rebase time to the start of this window.\r\n        // lastRebaseTimestampSec = now.sub(\r\n        //     now.mod(minRebaseTimeIntervalSec)).add(rebaseWindowOffsetSec);\r\n\r\n        epoch = epoch.add(1);\r\n\r\n        uint256 yfiRate;\r\n        uint256 tokenRate;\r\n        oracle.update();\r\n        (yfiRate, tokenRate) = oracle.getData();\r\n               \r\n        uint256 newTargetPrice = yfiRate.mul(3).div(1000000);\r\n\r\n        if (tokenRate > MAX_RATE) {\r\n            tokenRate = MAX_RATE;\r\n        }\r\n\r\n        int256 supplyDelta = computeSupplyDelta(tokenRate, newTargetPrice);\r\n\r\n        // Apply the Dampening factor.\r\n        supplyDelta = supplyDelta.div(rebaseLag.toInt256Safe());\r\n\r\n        if (supplyDelta > 0 && uFrags.totalSupply().add(uint256(supplyDelta)) > MAX_SUPPLY) {\r\n            supplyDelta = (MAX_SUPPLY.sub(uFrags.totalSupply())).toInt256Safe();\r\n        }\r\n\r\n        uint256 supplyAfterRebase = uFrags.rebase(epoch, supplyDelta);\r\n\r\n        IUniswapV2Pair pair = IUniswapV2Pair(uniswapV2Pair);\r\n\r\n        pair.sync();\r\n        \r\n        assert(supplyAfterRebase <= MAX_SUPPLY);\r\n        emit LogRebase(epoch, yfiRate, tokenRate, supplyDelta, now);\r\n    }\r\n\r\n    /**\r\n     * @notice Sets the reference to the orchestrator.\r\n     * @param orchestrator_ The address of the orchestrator contract.\r\n     */\r\n    function setOrchestrator(address orchestrator_)\r\n        external\r\n        onlyOwner\r\n    {\r\n        orchestrator = orchestrator_;\r\n    }\r\n\r\n    /**\r\n     * @notice Sets the deviation threshold fraction. If the exchange rate given by the market\r\n     *         oracle is within this fractional distance from the targetRate, then no supply\r\n     *         modifications are made. DECIMALS fixed point number.\r\n     * @param deviationThreshold_ The new exchange rate threshold fraction.\r\n     */\r\n    function setDeviationThreshold(uint256 deviationThreshold_)\r\n        external\r\n        onlyOwner\r\n    {\r\n        deviationThreshold = deviationThreshold_;\r\n    }\r\n\r\n    /**\r\n     * @notice Sets the rebase lag parameter.\r\n               It is used to dampen the applied supply adjustment by 1 / rebaseLag\r\n               If the rebase lag R, equals 1, the smallest value for R, then the full supply\r\n               correction is applied on each rebase cycle.\r\n               If it is greater than 1, then a correction of 1/R of is applied on each rebase.\r\n     * @param rebaseLag_ The new rebase lag parameter.\r\n     */\r\n    function setRebaseLag(uint256 rebaseLag_)\r\n        external\r\n        onlyOwner\r\n    {\r\n        require(rebaseLag_ > 0);\r\n        rebaseLag = rebaseLag_;\r\n    }\r\n\r\n    /**\r\n     * @notice Sets the parameters which control the timing and frequency of\r\n     *         rebase operations.\r\n     *         a) the minimum time period that must elapse between rebase cycles.\r\n     *         b) the rebase window offset parameter.\r\n     *         c) the rebase window length parameter.\r\n     * @param minRebaseTimeIntervalSec_ More than this much time must pass between rebase\r\n     *        operations, in seconds.\r\n     * @param rebaseWindowOffsetSec_ The number of seconds from the beginning of\r\n              the rebase interval, where the rebase window begins.\r\n     * @param rebaseWindowLengthSec_ The length of the rebase window in seconds.\r\n     */\r\n    function setRebaseTimingParameters(\r\n        uint256 minRebaseTimeIntervalSec_,\r\n        uint256 rebaseWindowOffsetSec_,\r\n        uint256 rebaseWindowLengthSec_)\r\n        external\r\n        onlyOwner\r\n    {\r\n        require(minRebaseTimeIntervalSec_ > 0);\r\n        require(rebaseWindowOffsetSec_ < minRebaseTimeIntervalSec_);\r\n\r\n        minRebaseTimeIntervalSec = minRebaseTimeIntervalSec_;\r\n        rebaseWindowOffsetSec = rebaseWindowOffsetSec_;\r\n        rebaseWindowLengthSec = rebaseWindowLengthSec_;\r\n    }\r\n\r\n    /**\r\n     * @dev ZOS upgradable contract initialization method.\r\n     *      It is called at the time of contract creation to invoke parent class initializers and\r\n     *      initialize the contract's state variables.\r\n     */\r\n    function initialize(address owner_, UFragments uFrags_, IOracle _oracle)\r\n        public\r\n        initializer\r\n    {\r\n        Ownable.initialize(owner_);\r\n        oracle = _oracle;\r\n\r\n        // deviationThreshold = 0.05e18 = 5e16\r\n        deviationThreshold = 5 * 10 ** (DECIMALS-2);\r\n\r\n        rebaseLag = 30;\r\n        minRebaseTimeIntervalSec = 1 days;\r\n        rebaseWindowOffsetSec = 72000;  // 8PM UTC\r\n        rebaseWindowLengthSec = 15 minutes;\r\n        lastRebaseTimestampSec = 0;\r\n        epoch = 0;\r\n\r\n        uFrags = uFrags_;\r\n        oracle.update();\r\n        (baseYFIValue,) = oracle.getData();\r\n    }\r\n\r\n    /**\r\n     * @return If the latest block timestamp is within the rebase time window it, returns true.\r\n     *         Otherwise, returns false.\r\n     */\r\n    function inRebaseWindow() public view returns (bool) {\r\n        return (\r\n            now.mod(minRebaseTimeIntervalSec) >= rebaseWindowOffsetSec &&\r\n            now.mod(minRebaseTimeIntervalSec) < (rebaseWindowOffsetSec.add(rebaseWindowLengthSec))\r\n        );\r\n    }\r\n\r\n    /**\r\n     * @return Computes the total supply adjustment in response to the exchange rate\r\n     *         and the targetRate.\r\n     */\r\n    function computeSupplyDelta(uint256 rate, uint256 targetRate)\r\n        private\r\n        view\r\n        returns (int256)\r\n    {\r\n        if (withinDeviationThreshold(rate, targetRate)) {\r\n            return 0;\r\n        }\r\n\r\n        // supplyDelta = totalSupply * (rate - targetRate) / targetRate\r\n        int256 targetRateSigned = targetRate.toInt256Safe();\r\n        return uFrags.totalSupply().toInt256Safe()\r\n            .mul(rate.toInt256Safe().sub(targetRateSigned))\r\n            .div(targetRateSigned);\r\n    }\r\n\r\n    /**\r\n     * @param rate The current exchange rate, an 18 decimal fixed point number.\r\n     * @param targetRate The target exchange rate, an 18 decimal fixed point number.\r\n     * @return If the rate is within the deviation threshold from the target rate, returns true.\r\n     *         Otherwise, returns false.\r\n     */\r\n    function withinDeviationThreshold(uint256 rate, uint256 targetRate)\r\n        private\r\n        view\r\n        returns (bool)\r\n    {\r\n        uint256 absoluteDeviationThreshold = targetRate.mul(deviationThreshold)\r\n            .div(10 ** DECIMALS);\r\n\r\n        return (rate >= targetRate && rate.sub(targetRate) < absoluteDeviationThreshold)\r\n            || (rate < targetRate && targetRate.sub(rate) < absoluteDeviationThreshold);\r\n    }\r\n}\r\n",
  "sourcePath": "D:\\Blockchain\\Internship\\Folder\\uFragments\\contracts\\UFragmentsPolicy.sol",
  "compiler": {
    "name": "solc",
    "version": "0.4.24+commit.e67f0147.Emscripten.clang"
  },
  "schemaVersion": "3.0.23",
  "updatedAt": "2020-09-19T15:45:17.861Z",
  "devdoc": {
    "methods": {
      "inRebaseWindow()": {
        "return": "If the latest block timestamp is within the rebase time window it, returns true.\r        Otherwise, returns false.\r"
      },
      "initialize(address)": {
        "details": "The Ownable constructor sets the original `owner` of the contract to the sender account."
      },
      "initialize(address,address,address)": {
        "details": "ZOS upgradable contract initialization method.\r     It is called at the time of contract creation to invoke parent class initializers and\r     initialize the contract's state variables.\r"
      },
      "isOwner()": {
        "return": "true if `msg.sender` is the owner of the contract."
      },
      "owner()": {
        "return": "the address of the owner."
      },
      "rebase()": {
        "details": "The supply adjustment equals (_totalSupply * DeviationFromTargetRate) / rebaseLag\r     Where DeviationFromTargetRate is (MarketOracleRate - targetRate) / targetRate\r     and targetRate is 0.006\r"
      },
      "renounceOwnership()": {
        "details": "Allows the current owner to relinquish control of the contract."
      },
      "setDeviationThreshold(uint256)": {
        "params": {
          "deviationThreshold_": "The new exchange rate threshold fraction.\r"
        }
      },
      "setOrchestrator(address)": {
        "params": {
          "orchestrator_": "The address of the orchestrator contract.\r"
        }
      },
      "setRebaseLag(uint256)": {
        "params": {
          "rebaseLag_": "The new rebase lag parameter.\r"
        }
      },
      "setRebaseTimingParameters(uint256,uint256,uint256)": {
        "params": {
          "minRebaseTimeIntervalSec_": "More than this much time must pass between rebase\r       operations, in seconds.\r",
          "rebaseWindowLengthSec_": "The length of the rebase window in seconds.\r",
          "rebaseWindowOffsetSec_": "The number of seconds from the beginning of\r the rebase interval, where the rebase window begins.\r"
        }
      },
      "transferOwnership(address)": {
        "details": "Allows the current owner to transfer control of the contract to a newOwner.",
        "params": {
          "newOwner": "The address to transfer ownership to."
        }
      }
    },
    "title": "uFragments Monetary Supply Policy\r"
  },
  "userdoc": {
    "methods": {
      "rebase()": {
        "notice": "Initiates a new rebase operation, provided the minimum time period has elapsed.\r "
      },
      "renounceOwnership()": {
        "notice": "Renouncing to ownership will leave the contract without an owner. It will not be possible to call the functions with the `onlyOwner` modifier anymore."
      },
      "setDeviationThreshold(uint256)": {
        "notice": "Sets the deviation threshold fraction. If the exchange rate given by the market\r        oracle is within this fractional distance from the targetRate, then no supply\r        modifications are made. DECIMALS fixed point number.\r"
      },
      "setOrchestrator(address)": {
        "notice": "Sets the reference to the orchestrator.\r"
      },
      "setRebaseLag(uint256)": {
        "notice": "Sets the rebase lag parameter.\r It is used to dampen the applied supply adjustment by 1 / rebaseLag\r If the rebase lag R, equals 1, the smallest value for R, then the full supply\r correction is applied on each rebase cycle.\r If it is greater than 1, then a correction of 1/R of is applied on each rebase.\r"
      },
      "setRebaseTimingParameters(uint256,uint256,uint256)": {
        "notice": "Sets the parameters which control the timing and frequency of\r        rebase operations.\r        a) the minimum time period that must elapse between rebase cycles.\r        b) the rebase window offset parameter.\r        c) the rebase window length parameter.\r"
      }
    }
  }
}