{
  "contractName": "UInt256LibMock",
  "abi": [
    {
      "anonymous": false,
      "inputs": [
        {
          "indexed": false,
          "name": "instanceName",
          "type": "string"
        },
        {
          "indexed": false,
          "name": "functionName",
          "type": "string"
        },
        {
          "indexed": false,
          "name": "caller",
          "type": "address"
        }
      ],
      "name": "FunctionCalled",
      "type": "event"
    },
    {
      "anonymous": false,
      "inputs": [
        {
          "indexed": false,
          "name": "uintVals",
          "type": "uint256[]"
        },
        {
          "indexed": false,
          "name": "intVals",
          "type": "int256[]"
        }
      ],
      "name": "FunctionArguments",
      "type": "event"
    },
    {
      "anonymous": false,
      "inputs": [
        {
          "indexed": false,
          "name": "val",
          "type": "int256"
        }
      ],
      "name": "ReturnValueInt256",
      "type": "event"
    },
    {
      "anonymous": false,
      "inputs": [
        {
          "indexed": false,
          "name": "val",
          "type": "uint256"
        }
      ],
      "name": "ReturnValueUInt256",
      "type": "event"
    },
    {
      "constant": false,
      "inputs": [
        {
          "name": "a",
          "type": "uint256"
        }
      ],
      "name": "toInt256Safe",
      "outputs": [
        {
          "name": "",
          "type": "int256"
        }
      ],
      "payable": false,
      "stateMutability": "nonpayable",
      "type": "function"
    }
  ],
  "bytecode": "0x608060405234801561001057600080fd5b5061011b806100206000396000f300608060405260043610603f576000357c0100000000000000000000000000000000000000000000000000000000900463ffffffff168063e823b9bf146044575b600080fd5b348015604f57600080fd5b50606c600480360381019080803590602001909291905050506082565b6040518082815260200191505060405180910390f35b600080608c8360ce565b90507f367c8bdeb63495ddb5dc24118d234a147995c3f818097913ac006528fae549f0816040518082815260200191505060405180910390a180915050919050565b600060ff60019060020a0219821115151560e757600080fd5b8190509190505600a165627a7a7230582057d6bb2c54b832af652e5bd77acfe19e9c7bb374fffec14d3a30af6105ba5ff40029",
  "source": "pragma solidity 0.4.24;\r\n\r\nimport \"./Mock.sol\";\r\nimport \"../lib/UInt256Lib.sol\";\r\n\r\n\r\ncontract UInt256LibMock is Mock {\r\n    function toInt256Safe(uint256 a)\r\n        external\r\n        returns (int256)\r\n    {\r\n        int256 result = UInt256Lib.toInt256Safe(a);\r\n        emit ReturnValueInt256(result);\r\n        return result;\r\n    }\r\n}\r\n",
  "sourcePath": "D:\\Blockchain\\Internship\\Folder\\uFragments\\contracts\\mocks\\UInt256LibMock.sol",
  "compiler": {
    "name": "solc",
    "version": "0.4.24+commit.e67f0147.Emscripten.clang"
  },
  "schemaVersion": "3.0.23",
  "updatedAt": "2020-09-13T16:11:12.976Z",
  "devdoc": {
    "methods": {}
  },
  "userdoc": {
    "methods": {}
  }
}